:100000000C9417020C943E0C0C94170C0C943F02A9
:100010000C943F020C943F020C943F020C943F025C
:100020000C943F020C943F020C943F020C943F024C
:100030000C943F020C94AA0C0C943F020C943F02C7
:100040000C94CD0B0C943F020C94060A0C94E0091E
:100050000C943F020C943F020C943F020C943F021C
:100060000C943F020C943F02301E2B1E291E2E1EA4
:100070003A1E521E6C1E861E971E9A1EAE1E471FEB
:1000800018202A202A202A202A202A202A202A2032
:100090002A202A202A20E41FDC1FE91F2A20BE1F55
:1000A000C11FC41FC71FCA1FCD1FD01FD31FD61FFC
:1000B000D91F2A202A202A20DF1F2A202A202A208E
:1000C0002A202A200220F91F00407A10F35A00A0AB
:1000D000724E18090010A5D4E80000E87648170011
:1000E00000E40B54020000CA9A3B000000E1F50551
:1000F000000080969800000040420F000000A0869B
:1001000001000000102700000000E80300000000CC
:100110006400000000000A00000000000100000070
:1001200000002C76D888DC674F0823DFC1DFAE598A
:10013000E1B1B796E5E3E453C63AE651997696E81D
:10014000E6C28426EB898C9B62ED407C6FFCEFBCA1
:100150009C9F40F2BAA56FA5F490055A2AF75C93CC
:100160006B6CF9676DC11BFCE0E40D47FEF520E602
:10017000B500D0ED902E0300943577050080841EE5
:10018000080000204E0A000000C80C333333330F40
:10019000986E12831141EF8D2114893BE65516CFDD
:1001A000FEE6DB18D1844B381BF77C1D901DA4BBE9
:1001B000E424203284725E228100C9F124ECA1E59E
:1001C0003D275254464D2061742068747470733A10
:1001D0002F2F7777772E677265656E666163656C22
:1001E0006162732E636F6D2F757365722D6D6F6411
:1001F000652F002027003A20506C656173652065EB
:100200006E74657220612076616C7565206C657313
:1002100073207468616E206F7220657175616C2047
:10022000746F20003A20506C6561736520656E74B0
:10023000657220612076616C7565206772656174F6
:100240006572207468616E206F7220657175616CD3
:1002500020746F2000496E2055736572204D6F64C5
:1002600065204F46460043616E63656C6C656400B3
:10027000466163746F72792044656661756C74734E
:10028000205365740053657420466163746F7279FE
:100290002044656661756C74733F2028792F6E2940
:1002A0000076322E32005468652053707574746580
:1002B00072697A6572202062792020475245454E46
:1002C00046414345204C4142532000000000002499
:1002D0000027002A0000000000250028002B000055
:1002E0000000002300260029000404040404040480
:1002F00004020202020202030303030303010204D5
:100300000810204080010204081020010204081097
:10031000205452494747455245440009526570658B
:100320006174204D6F6465204F6E00402E20536530
:100330007420466163746F72792044656661756CE0
:10034000747309232E20436F6D6D656E7409093F28
:100350002E2048656C70004253502E2044656C6519
:10036000746520537075740953502E20436C656179
:100370007220456E7472790909454E542E204163EE
:100380006365707420656E74727900542E20416428
:100390006420546F700909422E2041646420426F2A
:1003A00074746F6D0909432E2041646420436861B1
:1003B000726D00552E204164642055700909442E49
:1003C0002041646420446F776E0909532E204164F4
:1003D0006420537472616E676500582E20457869F9
:1003E000742055736572206D6F646509212E205449
:1003F0007269676765722053657175656E6365091B
:100400002A2E20546F67676C652052657065617491
:10041000204D6F6465000000000800020100000329
:10042000040700000000000000000F22ED2111244D
:100430001FBECFEFD8E0DEBFCDBF13E0A0E0B1E03C
:10044000EEE6F6E502C005900D92AA30B107D9F7A5
:1004500024E0AAE0B3E001C01D92A73CB207E1F797
:1004600012E0C6E1D2E004C02197FE010E94FC2800
:10047000C531D107C9F70E94CC1C0C942A2B0C94CF
:100480000000CF93DF9300D0CDB7DEB780918F030C
:1004900090919003019797FD05C0909390038093EE
:1004A0008F0304C01092900310928F0365E271E0F5
:1004B00081EB94E00E94311B0E94EB1260918F034C
:1004C0008AE890E09A838983CE0101960E94D10F39
:1004D0000F900F90DF91CF910895CF93DF9300D0CD
:1004E000CDB7DEB72091C1043091C20480918F0353
:1004F000909190030196281739072CF09093900360
:1005000080938F0304C03093900320938F0365E2A0
:1005100071E081EB94E00E94311B0E94EB1260912C
:100520008F038AE890E09A838983CE0101960E9426
:10053000D10F0F900F90DF91CF9108958F929F92DE
:10054000AF92BF92CF92DF92EF92FF92CF93DF9361
:10055000EC018091970390919803A0919903B09139
:100560009A036091970370919803809199039091F9
:100570009A0326E636E646E65FE30E946C2687FF8E
:1005800009C0C0909703D0909803E0909903F09031
:100590009A0306C086E6C82EDC2CEC2C8FE3F82EDE
:1005A000BE010D2E000C880B990B0E947326A7012B
:1005B00096010E94D2260E94B2284B01072E000C01
:1005C000AA08BB08CC24DD24C61AD70A0D2C000CBF
:1005D000EE08FF08C814D904EA04FB049CF48C1844
:1005E0009D08AE08BF0839F00E946223A50194015E
:1005F0000E94A62703C060E070E0CB01C60ED71EA4
:10060000E81EF91ECC0EDD1ED7FE02C0C12CD12C77
:10061000C60167E070E00E94E828CB01805C9F4F34
:1006200097FF02C080E090E08F3F910519F014F031
:100630008FEF90E00E94A719B6010D2C000C880BDB
:10064000990B0E94930BC601DF91CF91FF90EF9021
:10065000DF90CF90BF90AF909F908F900895CF93F1
:10066000C82F0E947C0B61E070E080E090E00E9467
:10067000930B8C2FCF910C947C0BCF93DF93CDB742
:10068000DEB72C970FB6F894DEBF0FBECDBF6CE27D
:1006900071E0CE0107960E94D81B6BE271E0CE019B
:1006A00001960E94D81BBE01695F7F4FCE01019663
:1006B0000E94E118CE0101960E945F1BCE010796B1
:1006C0000E945F1B0E94F21661EB74E0CE0101965E
:1006D0000E949C1B61EF72E0CE0101960E94E41A19
:1006E00067EB74E00E94FD1ABC01CE0107960E94E0
:1006F0009C1BCE0107960E94E715CE0107960E942B
:100700005F1BCE0101960E945F1B2C960FB6F894DA
:10071000DEBF0FBECDBFDF91CF9108957F928F9244
:100720009F92AF92BF92CF92DF92EF92FF920F9380
:100730001F93CF93DF93CDB7DEB7AD970FB6F89485
:10074000DEBF0FBECDBF90EA980F9F3110F0182F7B
:1007500002C010EE180FE12E012E000CFF086BE214
:1007600071E0CE0101960E94D81BCE0101960E9435
:100770001017CE0101960E945F1B0E94F2161134E1
:1007800009F450C30CF067C01A3209F434C3ACF555
:10079000103209F43AC13CF41A3009F412C41D3085
:1007A00009F40FC4BEC4133209F4F4C0163209F0C0
:1007B000B8C4109292036BE871E0CE0101960E94DA
:1007C000D81BCE0101960E94B515CE0101960E945C
:1007D0005F1B62E871E0CE0101960E94D81BCE013A
:1007E00001960E94B515CE0101960E945F1B0FEF86
:1007F00010E088248A94912C3BC31A3354F41033AC
:100800000CF024C21C3209F407C31E3209F407C3DA
:1008100088C41F3309F410C3103409F082C465E89A
:1008200072E0CE0182960E94641B6BE271E0CE0101
:1008300001960E94D81BBE016E5D7F4FCE010196CE
:100840000E94B018CE0101960E945F1BCE018296D5
:100850000E945F1B80C01C3409F42EC1E4F51634DD
:1008600009F4A2C124F415340CF42EC25AC418346D
:1008700009F460C1193409F054C4E0918F03F09178
:100880009003EE0FFF1FE35CFC4FF0930D03E0932A
:100890000C0360817181CE0101960E941916BE0180
:1008A0006F5F7F4F87EB94E00E94661ACE0101963E
:1008B0000E945F1B61E371E081EB94E00E94311BB9
:1008C00085E090E0909303018093020110920B0366
:1008D00010920A0328C11635BCF513350CF0F4C18B
:1008E0001E3409F481C1123509F01BC4E0918F0355
:1008F000F0919003EE0FFF1FEF5AFC4FF0930D03A2
:10090000E0930C0360817181CE0101960E9419165B
:10091000BE016F5F7F4F87EB94E00E94661ACE01A5
:1009200001960E945F1B66E671E081EB94E00E94F5
:10093000311B83E090E090930301809302011092B9
:100940000B0310920A037FC1183509F48AC01F37C0
:1009500009F42DC2E6C38BEA93E00E945B091816E6
:10096000190664F48BEA93E00E94390990EA980F23
:100970009F3108F48052E82E880FFF0829E5E2161F
:10098000F10409F42EC48EE4E816F10421F766E6BA
:1009900072E02FC46BE271E0CE0101960E94D81B79
:1009A000CE0101960E941017CE0101960E945F1B96
:1009B0008BEA93E00E945B0918161906E4F48BEAAF
:1009C00093E00E9439097C011A8219821C821B82E1
:1009D0001E821D828AA31BA2BE016E5D7F4FCE01C7
:1009E00001960E94311BCE0101960E94E715CE01AF
:1009F00001960E945F1BEAE0EE16F10409F413C4AD
:100A0000FDE0EF16F104A1F60EC465E271E081EBA2
:100A100094E00E94341A811104C080E090E020E24A
:100A20000BC06BE871E08DEB94E00E94311B1092DB
:100A3000900310928F0310C04091BB045091BC04EE
:100A40008417950748F4E091B704F091B804E80FD3
:100A5000F91F20830196F0CF0E94A4100E94EB1290
:100A600060C310929B036EE271E0CE0101960E947A
:100A7000D81BCE0101960E941017CE0101960E944C
:100A80005F1B0E94F21665E572E0CE0101960E949E
:100A9000641BCE0101960E94E715CE0101960E94CB
:100AA0005F1B10929F0310929E0380E090E00E94D3
:100AB00045160E94F81435C3E0918F03F09190031E
:100AC000EE0FFF1FE558FC4FF0930D03E0930C036E
:100AD00060817181CE0101960E941916BE016F5F7F
:100AE0007F4F87EB94E00E94661ACE0101960E9428
:100AF0005F1B6CE371E081EB94E00E94311B85E0A9
:100B000090E09093030180930201E0918F03F091B4
:100B10009003EE0FFF1FE25FFC4F80819181909365
:100B20000B0380930A038FE996E890930101809369
:100B30000001F7C2E0918F03F0919003EE0FFF1FC9
:100B4000E25FFC4FF0930D03E0930C036081718131
:100B5000CE0101960E941916BE016F5F7F4F87EB91
:100B600094E00E94661ACE0101960E945F1B6AE41F
:100B700071E081EB94E00E94311B85E090E090935E
:100B800003018093020181E090E090930B03809336
:100B90000A03E0918F03F0919003EE0FFF1FE558D9
:100BA000FC4F80819181C1CFE0918F03F091900340
:100BB000EE0FFF1FEB59FC4FF0930D03E0930C0376
:100BC00060817181CE0101960E941916BE016F5F8E
:100BD0007F4F87EB94E00E94661ACE0101960E9437
:100BE0005F1B69E571E01FC0E0918F03F0919003F6
:100BF000EE0FFF1FEB5DFC4FF0930D03E0930C0332
:100C000060817181CE0101960E941916BE016F5F4D
:100C10007F4F87EB94E00E94661ACE0101960E94F6
:100C20005F1B64E771E081EB94E00E94311B83E07D
:100C300090E0909303018093020181E090E0909313
:100C40000B0380930A0387EE93E06FCF65E271E0B8
:100C500081EB94E00E94341A811126C0612F87EB4A
:100C600094E00E94531A2091BB043091BC048091FF
:100C70000201909103018217930798F441E050E03C
:100C800067EB74E0CE0101960E94871CBE016F5F86
:100C90007F4F87EB94E00E94661ACE0101960E9476
:100CA0005F1B0E943D033DC280919203882309F49B
:100CB00038C2113309F4BBC0143309F032C2809139
:100CC000C1049091C204B5C0809192038823A9F019
:100CD000133459F0143461F0123461F48091C1047A
:100CE0009091C2040E94EA1305C00E946D0202C0E6
:100CF0000E9441021092920314C22091C1043091CB
:100D0000C20440918F03509190036DEB74E0CE01CB
:100D100088960E94871C20918F033091900340E0B9
:100D200050E06DEB74E0CE0101960E94871CBE017D
:100D30006F5F7F4FCE0182960E949C1B612FCE0178
:100D400082960E94531A811104C0CE0182960E949D
:100D5000A01ABE01685D7F4FCE0182960E94FD1AE7
:100D6000BC018DEB94E00E94481BCE0182960E944C
:100D70005F1BCE0101960E945F1BCE0188960E94E8
:100D80005F1B6091C1047091C2046B30710540F02B
:100D9000615071094FEF5FEF8DEB94E00E94011AF3
:100DA0006DEB74E08FE790E00E94461038C065E27A
:100DB00071E081EB94E00E94341A882399F06091ED
:100DC0008F03709190036150710941E050E08DEB09
:100DD00094E00E94011A6DEB74E08FE790E00E94AE
:100DE00046101AC02091BB043091BC042150310937
:100DF00040E050E045CF6091240381E06827609394
:100E000024038CE890E09A838983CE0101960E94A6
:100E1000D10F0E944E1485C10E94410282C10E94DE
:100E20006D027FC180919203882309F47AC180E02A
:100E300090E00E94EA1375C11092920362EC71E097
:100E4000CE0101960E94641B6BE271E0CE01829696
:100E50000E94D81BBE016F5F7F4FCE0182960E9419
:100E6000B018CE0182960E945F1BCE01019657C139
:100E70005401A01AB10AC12CD12CC016D106B4F568
:100E800060E28BEA93E00E947109C5018C0D9D1D03
:100E90000E949027782E2FE0281728F060E38BEA35
:100EA00093E00E947109472D50E060E070E019A2C4
:100EB000FE01B196DB01CA018F709927AA27BB27D3
:100EC00094E076956795579547959A95D1F7319720
:100ED0008A3014F4805D01C0895C8083411551051E
:100EE0006105710539F7CF010E949A158FEFC81A75
:100EF000D80AE0E1CE16D10409F0BFCF83EFC82EA7
:100F000081E0D82EF6016491611103C0C12CD12C6F
:100F10001EC08BEA93E00E947109FFEFCF1ADF0A2F
:100F2000892B81F7F3CFC5018C0D9D1D0E94902761
:100F3000803208F443C0682F8BEA93E00E94710965
:100F40008FEFC81AD80AE0E1CE16D10419F0C01606
:100F5000D1064CF367E28BEA93E00E94710989E8BD
:100F600091E00E949A15005111090F3F2FEF1207CF
:100F700009F07ECF6091240370E0CE0182960E943A
:100F8000BB156CE871E0CE0188960E94D81BBE01AB
:100F90006E5D7F4FCE0188960E94FD1ABC01CE0186
:100FA00001960E949C1BCE0101960E94B515CE01B0
:100FB00001960E945F1BCE018896ADC06EE270E084
:100FC000BBCF65E271E081EB94E00E94341A81119D
:100FD000A8C08091B7049091B804009719F00E94BE
:100FE000B92303C060E070E0CB018B0120910A03BC
:100FF00030910B0362177307A8F120910001309123
:1010000001012617370770F1E0910C03F0910D03F1
:10101000718360830E94EB120E94A41065E271E06C
:1010200081EB94E00E94311B6CE271E0CE0182966C
:101030000E94D81B6BE271E0CE0101960E94D81B82
:10104000BE016E5D7F4FCE0101960E94E118CE0178
:1010500001960E945F1BCE0182960E945F1B0E9438
:10106000F2165FC06CE271E0CE0182960E94D81B3E
:101070006BE271E0CE0101960E94D81BBE016E5D4D
:101080007F4FCE0101960E94E118CE0101960E9489
:101090005F1BCE0182960E945F1B0E94F216609138
:1010A0000001709101016017710788F060910A03D7
:1010B00070910B03CE0182960E94191661EB74E0C9
:1010C000CE0101960E949C1B64E272E00CC0CE012E
:1010D00082960E94191661EB74E0CE0101960E947F
:1010E0009C1B66EF71E0CE0101960E94B21ABE0110
:1010F0006E5D7F4F0E94FD1ABC01CE0188960E9452
:101100009C1BCE0188960E94E715CE0188960E940E
:101110005F1BCE0101960E945F1BCE0182960E944A
:101120005F1BFAE3EF16F1040CF04CC020E2E2166C
:10113000F10409F078C065E271E081EB94E00E946F
:10114000341A811170C06CE271E0CE0182960E9467
:10115000D81B6BE271E0CE0101960E94D81BBE0144
:101160006E5D7F4FCE0101960E94E118CE0101967F
:101170000E945F1BCE0182960E945F1B0E94F216A6
:1011800061EB74E0CE0101960E949C1B61EF72E05E
:10119000CE0101960E94E41A67EB74E00E94FD1AEA
:1011A000BC01CE0182960E949C1BCE0182960E94B9
:1011B000E715CE0182960E945F1BCE0101960E9428
:1011C0005F1B31C084E4E816F10469F1E5E5EE1631
:1011D000F10449F1E894E6F8FFE3EF16F10419F1A0
:1011E000AACF0E947C0F0E94A4100E94EB1260E71D
:1011F00072E0CE0182960E94641B6BE271E0CE0128
:1012000001960E94D81BBE016E5D7F4FCE010196F4
:101210000E94B018CE0101960E945F1BCE018296FB
:101220000E945F1BD7CFAD960FB6F894DEBF0FBEFE
:10123000CDBFDF91CF911F910F91FF90EF90DF9085
:10124000CF90BF90AF909F908F907F90089580E057
:1012500090E00895FC01538D448D252F30E0842FBC
:1012600090E0821B930B541710F0CF9608950197CE
:101270000895FC01918D828D981761F0828DDF01B8
:10128000A80FB11D5D968C91928D9F5F9F73928F79
:1012900090E008958FEF9FEF0895FC01918D828D6E
:1012A000981731F0828DE80FF11D858D90E008953B
:1012B0008FEF9FEF0895FC01918D228D892F90E093
:1012C000805C9F4F821B91098F73992708958BEA49
:1012D00093E00E945B0921E0892B09F420E0822F32
:1012E0000895EF92FF920F931F93CF93DF93EC013A
:1012F00081E0888F9B8D8C8D981305C0E889F989D2
:10130000808185FD26C0F62E0B8D10E00F5F1F4FEC
:101310000F731127E02E8C8DE8120CC00FB607FC5E
:10132000FACFE889F989808185FFF5CFCE010E9447
:10133000910AF1CF8B8DFE01E80FF11DE35AFF4FAB
:10134000F0829FB7F8940B8FEA89FB8980818062D5
:101350000AC09FB7F894EE89FF896083E889F9890C
:1013600080818370806480839FBF81E090E0DF9103
:10137000CF911F910F91FF90EF900895CF93DF933E
:10138000EC01888D8823C9F0EA89FB89808185FD7D
:1013900005C0A889B9898C9186FD0FC00FB607FCDE
:1013A000F5CF808185FFF2CFA889B9898C9185FF1F
:1013B000EDCFCE010E94910AE7CFDF91CF91089542
:1013C0001F920F920FB60F9211242F933F934F93BA
:1013D0005F936F937F938F939F93AF93BF93EF939D
:1013E000FF938BEA93E00E94910AFF91EF91BF91E6
:1013F000AF919F918F917F916F915F914F913F91AD
:101400002F910F900FBE0F901F9018951F920F9263
:101410000FB60F9211242F938F939F93EF93FF9307
:10142000E091BB03F091BC038081E091C103F09196
:10143000C20382FD12C090818091C4038F5F8F73BD
:101440002091C503821751F0E091C403F0E0E55507
:10145000FC4F958F8093C40301C08081FF91EF9171
:101460009F918F912F910F900FBE0F901F90189505
:1014700080E090E0892B29F00E94670981110C948B
:1014800000000895833081F028F4813099F0823093
:10149000A1F008958730A9F08830B9F08430D1F4F4
:1014A000809180008F7D03C0809180008F77809332
:1014B0008000089584B58F7702C084B58F7D84BD88
:1014C00008958091B0008F7703C08091B0008F7D28
:1014D0008093B00008953FB7F8948091A70390914E
:1014E000A803A091A903B091AA0326B5A89B05C0A3
:1014F0002F3F19F00196A11DB11D3FBFBA2FA92F93
:10150000982F8827820F911DA11DB11DBC01CD010F
:1015100042E0660F771F881F991F4A95D1F70895FB
:101520000895FC01848DDF01A80FB11DA35ABF4FA0
:101530002C91848D90E001968F739927848FA689D2
:10154000B7892C93A089B1898C91837080648C9326
:10155000938D848D981306C00288F389E02D8081D5
:101560008F7D80830895CF93DF93282F30E0F9019A
:10157000EA5EFB4F8491F901E350FD4FD491F901EC
:10158000E751FD4FC491CC2391F081110E94420A92
:10159000EC2FF0E0EE0FFF1FE152FD4FA591B4914B
:1015A000EC91ED2381E090E021F480E002C080E046
:1015B00090E0DF91CF91089584E00E94B30A892BD7
:1015C00061F080919103811108C08091A00391E0A6
:1015D00089278093A003909391038BEA93E00E9464
:1015E0005B0918161906E4F48BEA93E00E943909A6
:1015F00090939D0380939C038132910549F08B3534
:10160000910511F04B9761F481E080939203089566
:10161000109292039091A00381E089278093A00308
:1016200008951F93CF93DF93282F30E0F901EA5EEE
:10163000FB4F8491F901E350FD4FD491F901E7513B
:10164000FD4FC491CC23C1F0162F81110E94420A94
:10165000EC2FF0E0EE0FFF1FEB52FD4FA591B49180
:101660009FB7F894111104C08C91D095D82302C073
:10167000EC91DE2BDC939FBFDF91CF911F910895FA
:10168000CF93DF9390E0FC01E350FD4F2491FC01E8
:10169000E751FD4F8491882361F190E0880F991FF5
:1016A000FC01E553FD4FC591D491FC01EB52FD4F78
:1016B000A591B491611109C09FB7F89488812095D4
:1016C00082238883EC912E230BC0623061F49FB794
:1016D000F8948881322F309583238883EC912E2BC8
:1016E0002C939FBF06C08FB7F894E8812E2B2883D8
:1016F0008FBFDF91CF9108958E3008F08E508770A4
:10170000806480937C0080917A00806480937A006A
:1017100080917A0086FDFCCF80917800209179003D
:1017200090E0922B08958F929F92AF92BF92CF92AA
:10173000DF92EF92FF926B017C010E946B0A4B01DA
:101740005C01C114D104E104F104F1F00E946B0AC0
:10175000DC01CB0188199909AA09BB09883E93408D
:10176000A105B10570F321E0C21AD108E108F10822
:1017700088EE880E83E0981EA11CB11CC114D10410
:10178000E104F10419F7DDCFFF90EF90DF90CF90E7
:10179000BF90AF909F908F9008951F920F920FB6B9
:1017A0000F9211242F933F938F939F93AF93BF93E7
:1017B0008091A3039091A403A091A503B091A603E7
:1017C0003091A20323E0230F2D3720F40196A11DB1
:1017D000B11D05C026E8230F0296A11DB11D20935F
:1017E000A2038093A3039093A403A093A503B093B3
:1017F000A6038091A7039091A803A091A903B0919B
:10180000AA030196A11DB11D8093A7039093A8037D
:10181000A093A903B093AA03BF91AF919F918F9119
:101820003F912F910F900FBE0F901F9018951F9210
:101830000F920FB60F9211242F933F934F935F9304
:101840006F937F938F939F93AF93BF93EF93FF9388
:10185000E0910601F09107010995FF91EF91BF9189
:10186000AF919F918F917F916F915F914F913F9138
:101870002F910F900FBE0F901F9018951F920F92EF
:101880000FB60F9211242F933F934F935F936F9353
:101890007F938F939F93AF93BF93EF93FF93E091C9
:1018A0000401F09105010995FF91EF91BF91AF916E
:1018B0009F918F917F916F915F914F913F912F9168
:1018C0000F900FBE0F901F901895862F442311F094
:1018D00061E001C060E00C94110BCF93DF93EC0149
:1018E00085E090E09983888388E090E09B838A83F9
:1018F00087E090E09D838C8386E090E09F838E83D9
:1019000061E085E00E94400B61E08A810E94400B0B
:1019100061E08C810E94400B61E08E810E94400B4F
:101920006881798141E0CE010E94650C60E08A8186
:10193000DF91CF910C94110BFC0186819781019767
:101940009783868397FF05C0808191810197978354
:10195000868308951F920F920FB60F9211242F9332
:101960003F934F935F936F937F938F939F93AF9327
:10197000BF93EF93FF93E0912203F0912303099526
:10198000FF91EF91BF91AF919F918F917F916F9157
:101990005F914F913F912F910F900FBE0F901F902D
:1019A00018950F931F93CF93DF938C01EB010E9447
:1019B00090278883C80101960E9490278983CE01D1
:1019C000DF91CF911F910F910895CF92DF92EF9207
:1019D000FF920F931F93CF93DF93EB017B0124E1E1
:1019E000E20EF11C8B016C01C61AD70AC601800FEA
:1019F000911F0E949027F80181938F01EE15FF053A
:101A0000A9F7CE01DF91CF911F910F91FF90EF9039
:101A1000DF90CF9008958F929F92AF92BF92CF9216
:101A2000DF92EF92FF920F931F93CF93DF93C0E06B
:101A3000D0E08AE5C82ED12CE12CF12C0EEF10E07D
:101A40008091790390917A038C179D0708F446C022
:101A50008091990490919A049093A2048093A10498
:101A600020919E0330919F0382179307B9F58091CF
:101A7000A003882399F18EE00E947C0B0E946223D0
:101A8000A70196010E94A6274B015C012AE0820E65
:101A9000911CA11CB11CC80DD91D61E08DE00E94F4
:101AA000110BCE01B8010E94E8280E94A719C501B8
:101AB000B4010E94930B60E08DE00E94110B0E9424
:101AC0006223A70196010E94A627665F7F4F8F4F72
:101AD0009F4FC60FD71F0E94930BB2CFDF91CF91BC
:101AE0001F910F91FF90EF90DF90CF90BF90AF903C
:101AF0009F908F9008950F931F93CF93DF93C09182
:101B00003903D0913A03209789F1809199049091FB
:101B10009A049093A2048093A10420919E03309193
:101B20009F038217930711F58091A0038823F1F09A
:101B300060913B0370913C03072E000C880B990BBE
:101B40000E94930B0091790310917A0361E08DE07C
:101B50000E94110BB801110F880B990B0E94930B77
:101B600060E08DE00E94110B2197CDCFDF91CF91E6
:101B70001F910F910895CF92DF92EF92FF92809183
:101B80009E0390919F030B9789F4E0918F03F0914E
:101B90009003EE0FFF1FE25FFC4F6081718180E0D8
:101BA00090E00E9471266B017C0106C0C12CD12CF3
:101BB00080E8E82E8FE3F82E61E08DE00E94110BA3
:101BC000C701B6010E94B228CB010E949E0260E0CC
:101BD0008DE00E94110B209193033091940340916A
:101BE000950350919603C701B6010E9440286B01EE
:101BF0007C010E94B228CB010E949E026091790371
:101C000070917A0380E090E00E9471269B01AC0104
:101C1000C701B6010E946C2687FF04C08091A00313
:101C20008111CACFFF90EF90DF90CF9008958F92EF
:101C30009F92AF92BF92CF92DF92EF92FF92CF939B
:101C4000DF93C0917903D0917A0380919E039091A4
:101C50009F030B9789F4E0918F03F0919003EE0FAF
:101C6000FF1FE25FFC4F6081718180E090E00E9485
:101C700071264B015C0106C0812C912C80E8A82EB6
:101C80008FE3B82EBE010D2E000C880B990B0E941D
:101C900073266B017C019B01AC01C501B4010E945C
:101CA0006C2687FF22C08091A0038823F1F061E0B9
:101CB0008DE00E94110BCE010E949E0260E08DE03B
:101CC0000E94110B2091930330919403409195034E
:101CD00050919603C701B6010E94D2260E94B228F5
:101CE000EB01CB010E949E02CDCFDF91CF91FF90FF
:101CF000EF90DF90CF90BF90AF909F908F9008951E
:101D0000CF93DF9300D000D000D0CDB7DEB76CEB1F
:101D100071E0CE0101960E94D81BCE0101960E946F
:101D2000AC15CE0101960E945F1B26960FB6F89463
:101D3000DEBF0FBECDBFDF91CF910895CF93DF936C
:101D400000D000D000D0CDB7DEB760EC71E0CE019E
:101D500001960E94D81BCE0101960E94AC15CE01BF
:101D600001960E945F1B26960FB6F894DEBF0FBE49
:101D7000CDBFDF91CF910895CF93DF93EC01EBEAD4
:101D8000F3E0A089B18982E08C93A485B5851C928B
:101D9000A685B7858FEC8C93108EA489B58986E0D3
:101DA0008C93A289B3898C9180618C93A289B38929
:101DB0008C9188608C93A289B3898C9180688C9374
:101DC0000288F389E02D80818F7D808385EC91E00E
:101DD0000E949A158BEC91E00E949A1582ED91E099
:101DE0000E949A15CE01DF91CF910C949E0ECF9355
:101DF000DF93EC0102960E94BC0E1B826BE871E03F
:101E0000CE0108960E94D81B1D821C821F821E8252
:101E100060E083E00E94400B60E082E00E94400BA3
:101E200061E083E00E94110B61E082E0DF91CF91DD
:101E30000C94110BEF92FF920F931F93CF93DF93AC
:101E400000D0CDB7DEB78C017B01BE016F5F7F4F45
:101E50000E94D10C89819A818E159F0559F06E2DB3
:101E6000C8010E9498276F2DC80101960E949827EB
:101E700081E001C080E00F900F90DF91CF911F9122
:101E80000F91FF90EF90089569ED71E08BE994E078
:101E90000E94311B0C9448176BED71E08BE994E0C4
:101EA0000E94311B0C944817EF92FF920F931F93DF
:101EB000CF93DF937C018B01FB014481558160E06E
:101EC00070E0C8010E94011AC0E0D0E0CE018E0D82
:101ED0009F1D0E9490272196882339F0682FC80102
:101EE0000E94531AC436D10589F7DF91CF911F9113
:101EF0000F91FF90EF900895AF92BF92CF92DF9233
:101F0000EF92FF920F931F93CF93DF930DE313E0B4
:101F10006BE773E04EE053E0C1E5D3E0A5E6B3E044
:101F200085E2A82E83E0B82E80E090E024EF31E037
:101F3000E4E1CE2ED12CEE24E394F12CF8011192A1
:101F400011928F01FB0121933193BF01FA01C192DC
:101F5000D192AF01199219922D933D93F501E1921F
:101F6000F1925F0101968A30910541F790939003B9
:101F700080938F036BE871E08DEB94E00E94311B3E
:101F80001092900310928F0310922403DF91CF914F
:101F90001F910F91FF90EF90DF90CF90BF90AF9087
:101FA0000895FF920F931F93CF93DF93EC01F62ECA
:101FB00008811981C8010E949027F81621F06F2D21
:101FC000C8010E949827CE01DF91CF911F910F91F8
:101FD000FF9008958F929F92AF92BF92CF92DF921F
:101FE000EF92FF920F931F93CF93DF93CDB7DEB79E
:101FF00066970FB6F894DEBF0FBECDBF5C016B01D4
:10200000BE016F5F7F4F0E94E50CCE0101967C01FF
:102010004E0195E1890E911C860180E0AC18BD0847
:10202000F701419151917F01F801208131814217DF
:102030005307A1F060816501C00ED11EDE8ACD8AF2
:10204000C4010E94D10FF8016181FFEFCF1ADF0AAE
:10205000DE8ACD8AC4010E94D10F81E00E5F1F4F3E
:102060008E149F04E9F666960FB6F894DEBF0FBE95
:10207000CDBFDF91CF911F910F91FF90EF90DF9037
:10208000CF90BF90AF909F908F900895CF92DF92A6
:10209000EF92FF920F931F93CF93DF9300D000D066
:1020A00000D0CDB7DEB76C017B016BE871E0CE01EB
:1020B00001960E94D81BBE016F5F7F4FC6010E9430
:1020C000540F2D813E81F7018481958128173907AE
:1020D00039F4B701CE0101960E94E915892BE9F088
:1020E00000E010E0F7018481958180179107B8F036
:1020F0000817190748F480819181009729F0FC01A5
:10210000E00FF11F608101C060E0C601800F911FE8
:102110000E9498270F5F1F4FE5CF10E001C011E02C
:10212000CE0101960E945F1B812F26960FB6F89470
:10213000DEBF0FBECDBFDF91CF911F910F91FF90FA
:10214000EF90DF90CF900895CF9360919E037091B0
:102150009F0385E090E00E941A0FC82F6DE373E0A3
:1021600087E090E00E94EA0FC82B6BE773E08BE1F9
:1021700090E00E94EA0FC82B6EE073E08FE290E0DF
:102180000E94EA0FC82B65E673E087E590E00E94A5
:10219000EA0FC82B61E573E083E490E00E94EA0F48
:1021A000C82B65E273E08BE690E00E94EA0FC82B33
:1021B0006DEB74E08FE790E00E944610C82B6091B1
:1021C0008F03709190038AE890E00E941A0FC82B49
:1021D0006091240370E08CE890E00E941A0F8C2B31
:1021E000CF910895CF93DF93CDB7DEB762970FB647
:1021F000F894DEBF0FBECDBF83E190E00E942F03B5
:10220000BC01990F880B990B0E94732620E030E0E7
:1022100040E85AE30E94D22620E030E048EC52E445
:102220000E94D2260E94B2286F5F7F4F80913903AF
:1022300090913A036817790721F480910801882367
:1022400071F170933A03609339036091390370918F
:102250003A03CE010D960E94BB156DED71E0CE01E3
:1022600007960E94D81B63EA71E0CE0101960E9496
:10227000D81BAE01435F5F4FBE01695F7F4FCE0148
:1022800001960E946D18CE0101960E945F1BCE013F
:1022900007960E945F1BCE010D960E945F1B6296FF
:1022A0000FB6F894DEBF0FBECDBFDF91CF9108957A
:1022B000CF93DF93CDB7DEB762970FB6F894DEBF4A
:1022C0000FBECDBF82E190E00E942F036AE070E074
:1022D0000E94E82824E6269FC001279F900D112424
:1022E00020913B0330913C038217930721F4209106
:1022F0000801222371F190933C0380933B0360918A
:102300003B0370913C03CE010D960E94BB156CE11E
:1023100072E0CE0107960E94D81B6DEA71E0CE01F3
:1023200001960E94D81BAE01435F5F4FBE01695FFB
:102330007F4FCE0101960E946D18CE0101960E943A
:102340005F1BCE0107960E945F1BCE010D960E9477
:102350005F1B62960FB6F894DEBF0FBECDBFDF9154
:10236000CF9108950F931F93CF93DF93CDB7DEB72F
:1023700062970FB6F894DEBF0FBECDBF8EE090E03F
:102380000E942F036AE070E00E94E8288AE0869F9E
:102390008001879F100D11240A30110514F40AE002
:1023A00010E066EE71E08BEA94E00E94341A81112D
:1023B00014C06EEE71E08BEA94E00E94341A811131
:1023C0000CC08091790390917A038017910769F48A
:1023D00080910801811109C033C08AE09801829F71
:1023E0008001839F100D1124ECCF10937A0300938A
:1023F0007903B801CE010D960E94BB1565EF71E01F
:10240000CE0107960E94D81B61EA71E0CE010196C9
:102410000E94D81BAE01435F5F4FBE01695F7F4FD3
:10242000CE0101960E946D18CE0101960E945F1B9D
:10243000CE0107960E945F1BCE010D960E945F1B86
:1024400062960FB6F894DEBF0FBECDBFDF91CF917D
:102450001F910F910895CF93DF93CDB7DEB76297A9
:102460000FB6F894DEBF0FBECDBF60918F037091A1
:102470009003655F7F4FCE010D960E94BB156BE008
:1024800070E0CE0107960E94BB1563EA71E0CE01B1
:1024900001960E94D81BBE01695F7F4FCE01019655
:1024A0000E94E118CE0101960E945F1BCE010796A3
:1024B0000E945F1B0E94F216BE01635F7F4FCE0138
:1024C00007960E949C1B63EA71E0CE0101960E9470
:1024D000D81BBE01695F7F4FCE0101960E94E118B3
:1024E000CE0101960E945F1BCE0107960E945F1BE2
:1024F00064E072E0CE0101960E94D81BCE010196E5
:102500000E94E715CE0101960E945F1BCE010D9639
:102510000E945F1B62960FB6F894DEBF0FBECDBF60
:10252000DF91CF910895CF93DF93CDB7DEB72C978E
:102530000FB6F894DEBF0FBECDBF6DEA71E0CE01DD
:1025400001960E94D81BCE0101960E941017CE0161
:1025500001960E945F1B0E94F21666E072E0CE01B7
:1025600001960E94D81B6DEB74E0CE0101960E948B
:10257000FD1ABC01CE0107960E949C1BCE01079656
:102580000E94E715CE0107960E945F1BCE010196BF
:102590000E945F1B80912403882391F00E94B6164D
:1025A0006BE173E0CE0101960E94641BCE0101969F
:1025B0000E94E715CE0101960E945F1B0E94D4166F
:1025C0000E942B122C960FB6F894DEBF0FBECDBF23
:1025D000DF91CF910895CF93DF93CDB7DEB7A49766
:1025E0000FB6F894DEBF0FBECDBFE0918F03F09120
:1025F0009003EE0FFF1FE25FFC4F60817181CE01FF
:1026000049960E941916E0918F03F0919003EE0F06
:10261000FF1FE558FC4F60817181CE0143960E94F7
:102620001916E0918F03F0919003EE0FFF1FE35C0A
:10263000FC4F60817181CE010D960E94191661E1F7
:1026400072E0CE0107960E94D81BBE01635F7F4FE8
:10265000CE0107960E94FD1A64E272E00E94E41A1D
:10266000BE016D5E7F4F0E94FD1A68E372E00E941A
:10267000E41ABE01675E7F4F0E94FD1ABC01CE01C5
:102680004F960E949C1B6AE070E0CE0101960E946A
:10269000BB15BE01615E7F4FCE0101960E94B0184E
:1026A000CE0101960E945F1BCE014F960E945F1BD8
:1026B000CE0107960E945F1BCE010D960E945F1B04
:1026C000CE0143960E945F1BCE0149960E945F1B7C
:1026D000E0918F03F0919003EE0FFF1FEB5DFC4F35
:1026E00060817181CE0149960E941916E0918F0395
:1026F000F0919003EE0FFF1FEF5AFC4F6081718144
:10270000CE0143960E941916E0918F03F091900339
:10271000EE0FFF1FEB59FC4F60817181CE010D96CA
:102720000E9419166DE472E0CE0107960E94D81B34
:10273000BE01635F7F4FCE0107960E94FD1A6FE5D1
:1027400072E00E94E41ABE016D5E7F4F0E94FD1A86
:1027500063E772E00E94E41ABE01675E7F4F0E9449
:10276000FD1ABC01CE014F960E949C1B6BE070E0ED
:10277000CE0101960E94BB15BE01615E7F4FCE0166
:1027800001960E94B018CE0101960E945F1BCE01F7
:102790004F960E945F1BCE0107960E945F1BCE01E1
:1027A0000D960E945F1BCE0143960E945F1BCE01D7
:1027B00049960E945F1B0E9493120E942B128CE08C
:1027C00090E0A4960FB6F894DEBF0FBECDBFDF91A8
:1027D000CF910895CF93DF9300D0CDB7DEB780932C
:1027E0008F03909390032AE830E03A832983682F7F
:1027F000CE0101960E94D10F109292030E94EB121B
:102800000F900F90DF91CF910895CF93DF93CDB7C5
:10281000DEB72C970FB6F894DEBF0FBECDBF6CE2CB
:1028200071E0CE0107960E94D81B67E872E0CE01E6
:1028300001960E94D81BBE01695F7F4FCE010196B1
:102840000E94E118CE0101960E945F1BCE010796FF
:102850000E945F1B8091A003882399F00E94B61606
:1028600061E173E0CE0101960E94641BCE010196E6
:102870000E94B515CE0101960E945F1B0E94D416DE
:1028800004C00E94D4160E94F2162C960FB6F8943B
:10289000DEBF0FBECDBFDF91CF9108950F931F9381
:1028A000CF93DF93CDB7DEB72C970FB6F894DEBF8A
:1028B0000FBECDBF0E94EB128C016AED73E0CE011A
:1028C00007960E94641BB8016F5F7F4FCE0101968F
:1028D0000E94BB15BE01695F7F4FCE0101960E9429
:1028E000B018CE0101960E945F1BCE0107960E9490
:1028F0005F1B63EB73E0CE0107960E94641BB80177
:102900006E5F7F4FCE0101960E94BB15BE01695FCD
:102910007F4FCE0101960E94B018CE0101960E9411
:102920005F1BCE0107960E945F1B6BE873E0CE0130
:1029300007960E94641BB8016D5F7F4FCE01019620
:102940000E94BB15BE01695F7F4FCE0101960E94B8
:10295000B018CE0101960E945F1BCE0107960E941F
:102960005F1B67E573E0CE0107960E94641BB80108
:102970006C5F7F4FCE0101960E94BB15BE01695F5F
:102980007F4FCE0101960E94B018CE0101960E94A1
:102990005F1BCE0107960E945F1B6BE273E0CE01C6
:1029A00007960E94641BB8016B5F7F4FCE010196B2
:1029B0000E94BB15BE01695F7F4FCE0101960E9448
:1029C000B018CE0101960E945F1BCE0107960E94AF
:1029D0005F1B0E9405140E9493122C960FB6F89468
:1029E000DEBF0FBECDBFDF91CF911F910F91089534
:1029F000CF93DF93CDB7DEB762970FB6F894DEBF03
:102A00000FBECDBF8091990490919A049093A20437
:102A10008093A10490939F0380939E0326E0289FB8
:102A2000B001299F700D1124675B7B4F8BEA94E006
:102A30000E94481B6AE872E0CE0101960E94D81BF2
:102A4000CE0101960E94ED1BCE0101960E945F1BF4
:102A50006BEA74E0CE010D960E949C1B6CE872E05C
:102A6000CE0107960E94D81B62E972E0CE01019662
:102A70000E94D81BAE01435F5F4FBE01695F7F4F6D
:102A8000CE0101960E946D18CE0101960E945F1B37
:102A9000CE0107960E945F1BCE010D960E945F1B20
:102AA00080919E0390919F030E94451681E0809340
:102AB000080120919E0330919F032B30310529F4AA
:102AC00080939B030E944E1422C010929B0310928D
:102AD0007A03109279038DEC9CECACECBDE380930F
:102AE000930390939403A0939503B093960310924D
:102AF0009703109298031092990310929A031092E0
:102B00003C0310923B0310923A03109239036091F8
:102B10009E0385E090E09A838983CE0101960E940E
:102B2000D10F62960FB6F894DEBF0FBECDBFDF9116
:102B3000CF910895009769F0FC0101900020E9F71A
:102B40003197AF01481B590BBC018BEA93E00C9401
:102B5000261980E090E00895FC0144815581608150
:102B600071818BEA93E00C9426190E94AC1589E8D8
:102B700091E00C949A150F931F93CF93DF93CDB7E9
:102B8000DEB762970FB6F894DEBF0FBECDBF8C01E3
:102B9000CB01F801118210821382128215821482F5
:102BA0004AE0BE016F5F7F4F0E94F023BE016F5F5E
:102BB0007F4FC8010E94311B62960FB6F894DEBFAA
:102BC0000FBECDBFDF91CF911F910F9108950C944F
:102BD000AC15CF93DF93DC01ED91FC91EB01A88163
:102BE000B981309711F01097C9F4109759F0EB01A3
:102BF0002C813D81232B31F08C9190E09195819532
:102C0000910914C0309781F0DC0114968D919C914C
:102C10001597892B49F0808190E008C0BD01CF0154
:102C2000DF91CF910C940B2B80E090E0DF91CF915E
:102C300008950F931F93CF93DF93CDB7DEB76197BE
:102C40000FB6F894DEBF0FBECDBF8C01CB01F801EB
:102C50001182108213821282158214824AE0BE0110
:102C60006F5F7F4F0E941024BE016F5F7F4FC801CE
:102C70000E94311B61960FB6F894DEBF0FBECDBF28
:102C8000DF91CF911F910F910895EF92FF920F93D3
:102C90001F93CF93DF93F82EE92E8093A104909396
:102CA000A20480E090E8A0E0B0E00F2C04C0B5954D
:102CB000A795979587950A94D2F78C016091A30404
:102CC0007091A40441E083EA94E00E94650C60E006
:102CD0008091A5040E94110BC0E1D0E0402F41700B
:102CE0006091A7047091A80483EA94E00E94650CA7
:102CF00061E070E080E090E00E94930B61E08091E1
:102D0000A9040E94110B60E08091A9040E94110B9C
:102D100061E070E080E090E00E94930B16950795CB
:102D20002197E1F661E08091A5040E94110B62E019
:102D300070E080E090E00E94930B60E08091A50439
:102D40000E94110B6091A3047091A40440E083EAF7
:102D500094E00E94650CF0929904E0929A04DF914D
:102D6000CF911F910F91FF90EF900895CF93DF9334
:102D700000D000D000D0CDB7DEB764ED72E0CE0158
:102D800001960E94D81BCE0101960E94AC15CE017F
:102D900001960E945F1B26960FB6F894DEBF0FBE09
:102DA000CDBFDF91CF910895CF93DF9300D000D0B6
:102DB00000D0CDB7DEB769ED72E0CE0101960E947A
:102DC000D81BCE0101960E94AC15CE0101960E943F
:102DD0005F1B26960FB6F894DEBF0FBECDBFDF9106
:102DE000CF910895CF93DF9300D000D000D0CDB71E
:102DF000DEB76EED72E0CE0101960E94D81BCE01C7
:102E000001960E94AC15CE0101960E945F1B26968A
:102E10000FB6F894DEBF0FBECDBFDF91CF910895FE
:102E20000F931F93CF93DF93CDB7DEB72C970FB6D9
:102E3000F894DEBF0FBECDBF8C0163EE72E0CE0111
:102E400007960E94D81BB801CE0107960E94FD1A72
:102E500066EE72E00E94E41ABC01CE0101960E9467
:102E60009C1BCE0101960E94AC15CE0101960E94DA
:102E70005F1BCE0107960E945F1B2C960FB6F8943D
:102E8000DEBF0FBECDBFDF91CF911F910F9108958F
:102E90000F931F93CF93DF93CDB7DEB768970FB62D
:102EA000F894DEBF0FBECDBF6BE871E0CE01019696
:102EB0000E94D81BCE0101960E94E715CE01019613
:102EC0000E945F1B83E00E94B30A8C0182E00E9493
:102ED000B30A000F111F082B192B809197049091B2
:102EE00098048130910509F44DC01CF4892B49F0F8
:102EF00088C08230910509F463C0039709F47AC051
:102F000080C0809196048823F9F06EE271E0CE01D2
:102F100001960E94D81BCE0101960E941017CE0187
:102F200001960E945F1B85E994E00E94800E0130AB
:102F30001105D1F024F40115110571F062C00230C1
:102F4000110509F057C01BC00130110569F09CF450
:102F50000115110509F0B6C06BED71E08BE994E045
:102F60000E94341A81110BC082E090E09093980483
:102F70008093970446C00230110509F09FC081E09C
:102F800090E0F4CF0130110591F1F4F00230110519
:102F900071F103301105A9F510929804109297046D
:102FA0008091990490919A04019660919304709194
:102FB00094040E94E82890939A048093990421C075
:102FC00001301105A1F024F40115110581F019C09B
:102FD0000230110561F00330110599F41092980444
:102FE0001092970483E994E00E949C0C0AC083E04D
:102FF00090E0BCCF0330110521F410929804109298
:10300000970480919604882309F45CC0B801615F3D
:103010007F4FCE0101960E94BB15CE0101960E9402
:103020001017CE0101960E945F1B85E994E00E9473
:10303000800E6091970470919804CE0107960E94CB
:10304000BB15B801CE010D960E94BB156AEE72E069
:10305000CE0143960E94D81BBE01635F7F4FCE0115
:1030600043960E94FD1A64EF72E00E94E41ABE01CA
:10307000695F7F4F0E94FD1A6DEF72E00E94E41AB3
:103080006BE974E00E94FD1ABC01CE0101960E941A
:103090009C1BCE0101960E94B515CE0101960E949F
:1030A0005F1BCE0143960E945F1BCE010D960E94CE
:1030B0005F1BCE0107960E945F1B04C00330110501
:1030C00009F49BCF68960FB6F894DEBF0FBECDBF54
:1030D000DF91CF911F910F910895EF92FF920F937F
:1030E0001F93CF93DF9300D000D000D0CDB7DEB7D1
:1030F0007B018A01BC01CE0101960E949C1BCE017E
:1031000001960E941017CE0101960E945F1BB70125
:10311000CE0101960E949C1BCE0101960E94E715EC
:10312000CE0101960E945F1B0E94F216B801CE01EB
:1031300001960E949C1BCE0101960E94B515CE01FE
:1031400001960E945F1B26960FB6F894DEBF0FBE55
:10315000CDBFDF91CF911F910F91FF90EF90089518
:103160000F931F93CF93DF9300D000D000D0CDB743
:10317000DEB78B01BC01CE0101960E949C1BCE01E3
:1031800001960E941017CE0101960E945F1B0E94BB
:10319000F216B801CE0101960E949C1BCE01019649
:1031A0000E94B515CE0101960E945F1B26960FB6B0
:1031B000F894DEBF0FBECDBFDF91CF911F910F916D
:1031C0000895EF92FF920F931F93CF93DF93CDB7A4
:1031D000DEB72C970FB6F894DEBF0FBECDBF7C01D3
:1031E0008B0163EE72E0CE0107960E94D81BB701F7
:1031F000CE0107960E94FD1A68E073E00E94E41A6F
:10320000B8010E94FD1A68EE72E00E94E41ABC0147
:10321000CE0101960E949C1BCE0101960E94AC1526
:10322000CE0101960E945F1BCE0107960E945F1B94
:103230002C960FB6F894DEBF0FBECDBFDF91CF91B5
:103240001F910F91FF90EF9008950895CF92DF9214
:10325000EF92FF920F931F93CF93DF936C017A014C
:103260008B01C0E0D0E0CE15DF0581F0D8016D9173
:103270008D01D601ED91FC910190F081E02DC60108
:103280000995892B11F02196EECF7E01C701DF91C0
:10329000CF911F910F91FF90EF90DF90CF90089505
:1032A0000E94FD2A0F931F93CF93DF93EC01888137
:1032B0009981009729F02A813B812617370788F4E6
:1032C0008B016F5F7F4F0E94372A009761F09983CF
:1032D00088831B830A832C813D81232B11F4FC01FD
:1032E000108281E001C080E0DF91CF911F910F91AA
:1032F0000895EF92FF920F931F93CF93DF93611581
:10330000710511F480E01CC041155105C1F07B012D
:10331000EC018C819D818A01080F191FB801CE0133
:103320000E945219882371F3288139818C819D81F3
:10333000B701820F931F0E94142B1D830C8381E021
:10334000DF91CF911F910F91FF90EF900895CF9350
:10335000DF93EC0161E08BE00E94400B209711F4B9
:1033600060E004C0CF3FD10531F461E08BE0DF9134
:10337000CF910C94110BE1E2F4E0E491E330F9F029
:1033800048F4E130B9F0E230A1F584B5806284BD43
:10339000C8BD34C0E730E9F0E83019F1E43049F550
:1033A00080918000806280938000D0938B00C093D6
:1033B0008A0024C084B5806884BDC7BD1FC08091C9
:1033C0008000806880938000D0938900C09388003B
:1033D00015C08091B00080688093B000C093B300A6
:1033E0000DC08091B00080628093B000C093B400A3
:1033F00005C0C038D1050CF0B8CFB2CFDF91CF9166
:103400000895CF93DF93DC011496ED91FC9115970D
:103410006E177F0730F54115510519F1DF01A61B25
:10342000B70B9A01A417B50708F49D01DB01EC0165
:1034300088819981E21BF30BFD83EC83AF01461B6E
:10344000570B260F371FBC01620F731F8A0F9B1F7C
:103450000E941B2BE881F9818C819D81E80FF91F67
:103460001082DF91CF910895FC0124813581232BB7
:1034700031F421E061157105A1F0FB0108C0FC01E8
:10348000808191816115710531F421E0FC01808119
:10349000882339F005C00E940B2B21E0892B09F00D
:1034A00020E0822F0895CF93DF9300D0CDB7DEB711
:1034B00069831A8241E050E0BE016F5F7F4F0E9436
:1034C00079190F900F90DF91CF9108950F931F936B
:1034D000CF93DF938C01EB01FC01808191810097F8
:1034E00039F06881798161157105A1F40E94AE29D6
:1034F00088819981F801918380838A819B8193835C
:1035000082838C819D8195838483198218821B829A
:103510001A820FC0F801428153812C813D814217EC
:10352000530720F30E94142B8C819D81F801958311
:1035300084831D821C82DF91CF911F910F9108958A
:10354000CF93DF93EC0188819981009711F00E945D
:10355000AE29198218821D821C821B821A82DF9179
:10356000CF910895EF92FF920F931F93CF93DF9324
:10357000EC017B0161157105E1F0CB010E94E723AD
:103580000097D1F02C813D818C01020F131FB801EF
:10359000CE010E945219882361F0288139818C81E3
:1035A0009D81B701820F931F0E94E0231D830C832E
:1035B00003C0CE010E94A01ACE01DF91CF911F91CE
:1035C0000F91FF90EF900895CF93DF93EC01611579
:1035D000710561F0FB0101900020E9F73197AF011F
:1035E000461B570B0E947919811103C0CE010E941E
:1035F000A01ACE01DF91CF910895CF93DF93EC0114
:10360000FB0144815581608171810E94791981118A
:1036100003C0CE010E94A01ACE01DF91CF91089580
:10362000EF92FF920F931F93CF93DF93EC017B01F7
:103630008A01BA010E945219811104C0CE010E9470
:10364000A01A07C01D830C83B701888199810E944D
:10365000142BCE01DF91CF911F910F91FF90EF902E
:103660000895CF93DF93EC016115710559F0FB01CB
:1036700001900020E9F73197AF01461B570B0E94DC
:10368000101B02C00E94A01ACE01DF91CF910895B5
:10369000CF93DF93EC01FB018617970761F0608100
:1036A00071816115710529F0448155810E94101BBB
:1036B00002C00E94A01ACE01DF91CF910895FC01B3
:1036C000808191810C94AE29EF92FF920F931F930A
:1036D000CF93DF93EC01198218821B821A821D821C
:1036E0001C826115710509F18B01CB010E94E72352
:1036F0007C01BC01CE010E945219811109C0CE018A
:10370000DF91CF911F910F91FF90EF900C94A01A31
:10371000FD82EC82B80188819981DF91CF911F9160
:103720000F91FF90EF900C94E023DF91CF911F91C8
:103730000F91FF90EF900895FC0111821082138287
:103740001282158214820C94481BCF92DF92EF9262
:10375000FF920F931F93CF93DF9300D000D000D040
:10376000CDB7DEB76C017B0100E010E00C151D0544
:1037700084F4B701CE0101960E949C1BCE010196F4
:103780000E94AC15CE0101960E945F1B0F5F1F4F78
:10379000EDCF26960FB6F894DEBF0FBECDBFDF91FA
:1037A000CF911F910F91FF90EF90DF90CF900895F0
:1037B000FC0111821082138212821582148261151B
:1037C000710551F0FB0101900020E9F73197AF013D
:1037D000461B570B0C94101B0895CF93DF9300D01A
:1037E00000D000D0CDB7DEB7BC01CE0101960E945B
:1037F0009C1BCE0101960E941017CE0101960E94DB
:103800005F1B6CEB71E0CE0101960E94D81BCE01CC
:1038100001960E94AC15CE0101960E945F1B269670
:103820000FB6F894DEBF0FBECDBFDF91CF910895E4
:10383000EF92FF920F931F93CF93DF9300D000D0AE
:1038400000D0CDB7DEB77C01FC01848195810AE40C
:1038500010E0081B190B169507956FE971E0CE0172
:1038600001960E94D81BCE0101960E94AC15CE0194
:1038700001960E945F1B62EF72E0CE0101960E94EA
:10388000D81BBE016F5F7F4FC8010E94A51BCE01F0
:1038900001960E945F1BB701CE0101960E949C1BFE
:1038A000CE0101960E94AC15CE0101960E945F1BCD
:1038B00062EF72E0CE0101960E94D81BBE016F5FDD
:1038C0007F4FC8010E94A51BCE0101960E945F1B7D
:1038D0006FE971E0CE0101960E94D81BCE010196DE
:1038E0000E94AC1589E891E00E949A15CE010196DC
:1038F0000E945F1B26960FB6F894DEBF0FBECDBFA9
:10390000DF91CF911F910F91FF90EF900895BF929B
:10391000CF92DF92EF92FF920F931F93CF93DF939B
:103920007C016B018A01E9012417350720F4812FFE
:103930008901C42FD82F6BE871E0C7010E94D81B02
:10394000D60114968D919C91159708171907C8F404
:103950008C179D0708F4EC01D601ED91FC911197AD
:10396000EC0FFD1FB08010826D917C91600F711F74
:10397000C7010E94311BD601ED91FC91EC0FFD1F98
:10398000B082C701DF91CF911F910F91FF90EF900F
:10399000DF90CF90BF900895CF93DF93CDB7DEB780
:1039A000AD970FB6F894DEBF0FBECDBF789484B547
:1039B000826084BD84B5816084BD85B5826085BD2B
:1039C00085B5816085BD80916E00816080936E00B9
:1039D00010928100809181008260809381008091AB
:1039E000810081608093810080918000816080935C
:1039F00080008091B10084608093B1008091B0001C
:103A000081608093B00080917A00846080937A0016
:103A100080917A00826080937A0080917A00816040
:103A200080937A0080917A00806880937A00109267
:103A3000C1006AE971E0CE0188960E94D81B8EE031
:103A40000E947C0B61E08DE00E94400B61E08BE006
:103A50000E94400B60E084E00E94400B60E088E040
:103A60000E94400B60E08DE00E94110B8FEF90E010
:103A70000E94A71960ED77E080E090E00E94930B30
:103A8000CE0101960E94BC0E88E494E00E949E0E36
:103A90006CE271E0CE0101960E94D81B6CE271E0ED
:103AA000CE0182960E94D81BBE016F5F7F4FCE0170
:103AB00082960E94E118CE0182960E945F1BCE0181
:103AC00001960E945F1B6FE971E0CE0101960E9492
:103AD000D81BBE016F5F7F4F8CE490E00E94A51B56
:103AE000CE0101960E945F1B6BE871E0CE0101964A
:103AF0000E94D81BCE0101960E94B515CE010196F9
:103B00000E945F1B66EA72E0CE0101960E94641B70
:103B1000CE0101960E94181CCE0101960E945F1BE7
:103B200061EA72E0CE0101960E94641BCE0101960B
:103B30000E94181CCE0101960E945F1B6FE971E084
:103B4000CE0101960E94D81BBE016F5F7F4F8CE4AF
:103B500090E00E94A51BCE0101960E945F1B0E946F
:103B60007C0F6BE871E0CE0101960E94D81BBE016C
:103B70006F5F7F4F80E090E00E94540F2D813E8167
:103B80008CA59DA52817390751F4BE01685D7F4FAC
:103B9000CE0101960E94E915892B09F449C30E94C0
:103BA000A410BE01685D7F4F80E090E00E94461047
:103BB0000E94F81484E49FE090930501809304012F
:103BC00080916900836080936900E89A8CE49FE0AB
:103BD0009093070180930601809169008C60809327
:103BE0006900E99A80E1809381001092800080E56D
:103BF00093EC909387008093860082E1809381000C
:103C00008CED9AE0909323038093220381E08093CC
:103C10006F00CE0101960E945F1BCE0188960E9424
:103C20005F1BCC24C394D12C5AE0752E8091A00345
:103C3000882309F479C10E940514E0919E03F09154
:103C40009F03EC30F10508F05FC1EC5CFF4F0C9472
:103C5000FC280E94BB0D0E94170E56C10E94170E31
:103C60000E94BB0D51C18091A003882309F44CC16F
:103C70000E94BB0D8091990490919A049093A204A4
:103C80008093A10420919E0330919F038217930794
:103C900009F03AC1E8CF8091A003882309F434C128
:103CA0000E94170E8091990490919A049093A20417
:103CB0008093A10420919E0330919F038217930764
:103CC00009F022C1E8CF8091A003882309F41CC128
:103CD0000E94BB0D0E94170E8091990490919A0446
:103CE0009093A2048093A10420919E0330919F039E
:103CF0008217930709F008C1E6CF8091A0038823BB
:103D000009F402C10E94170E0E94BB0D8091990414
:103D100090919A049093A2048093A10420919E0311
:103D200030919F038217930709F0EEC0E6CF0E94FF
:103D30007B0DEAC060913B0370913C03072E000CA1
:103D4000880B990B0E94930B6091A10381E0682777
:103D50006093A1038DE00E94110BD6C0E09039035F
:103D6000F0903A03E114F10409F4CEC08091990473
:103D700090919A049093A2048093A10420919E03B1
:103D800030919F038217930709F0BEC08091A00372
:103D9000811197C2B9C02091BD043091BE04211594
:103DA000310509F479C0F901E80FF91F10810E946B
:103DB000EB12E0908F03F0909003EE0CFF1CF701E4
:103DC000E558FC4F8081918190937A038093790329
:103DD000F701EB59FC4F6081718180E090E00E9417
:103DE000712620E030E04AE754E40E9440286093C6
:103DF0009303709394038093950390939603F70134
:103E0000EF5AFC4F6081718180E090E00E94712642
:103E100060939703709398038093990390939A0308
:103E2000F701E35CFC4F8081918190933C03809388
:103E30003B03D0923A03C0923903E12CF12C8091DC
:103E40008F0390919003FC01EE0FFF1FEB5DFC4F81
:103E500020813181E216F30608F1019690939003D8
:103E600080938F0380918F03909190032091C104E0
:103E70003091C2048217930708F48DCF80912403F8
:103E8000882309F43FC08091A0038823D9F11092C0
:103E9000900310928F03E6CF10E089CF80913B030F
:103EA00090913C031816190654F460913B037091ED
:103EB0003C03072E000C880B990B0E94930B1434C3
:103EC00099F03CF4123471F01334C1F40E947B0D6C
:103ED00015C0143561F0153579F0133579F40E9469
:103EE0000B0D0CC060E004C00E94170E07C061E01B
:103EF0008DE00E94110B02C00E94BB0D8FEFE81AEB
:103F0000F80A9DCF0E942B1284E00E94B30A892BED
:103F1000D9F71092A0031092910384E00E94B30A93
:103F2000892BD9F70E9405148091990490919A04E5
:103F30009093A2048093A10420919E0330919F034B
:103F40008217930711F00E94F81480919C039091BE
:103F50009D03181619060CF081C020919B032223A3
:103F600019F00E948E0376C0FC01B197E432F1058E
:103F700008F070C0E05CFF4F0C94FC2889E090E0F2
:103F800020C080E090E01DC081E090E01AC082E097
:103F900090E017C083E090E014C084E090E011C08E
:103FA00085E090E00EC086E090E00BC087E090E0F6
:103FB00008C088E090E005C08AE090E002C08BE095
:103FC00090E00E94451646C083E994E00E949C0C54
:103FD00041C08091990490919A0401966091930454
:103FE000709194040E94E82890939A048093990415
:103FF00031C080919203882369F183E994E00E94A3
:104000009C0C13C080919203882321F18091990424
:1040100090919A04019660919304709194040E9487
:10402000E82890939A04809399041092920312C006
:104030006EE271E0CE0101960E94D81BCE0101967E
:104040000E941017CE0101960E945F1B88E494E045
:104050000E94800E10929D0310929C0380919E03FB
:1040600090919F038830910509F4D7C040F08930C2
:10407000910509F497C00A9709F4CFC0D4C00E94F3
:10408000B21182E190E00E942F03BC01990F880BCE
:10409000990B0E9473262FE632E143E85AE30E940F
:1040A000D2264B015C0126E636E646E65FE30E9437
:1040B0006C2687FF12C02DEC3CEC4CEC5DE3C50197
:1040C000B4010E946C2687FF0EC08DEC882E8CEC0C
:1040D000982EA92C8DE3B82E06C096E6892E982C32
:1040E000A82C9FE3B92E2090930330909403409026
:1040F00095035090960320E030E048EC52E4C5016F
:10410000B4010E94D2260E94B2287B0120E030E058
:1041100048EC52E4C201B1010E94D2260E94B228AA
:10412000E616F70609F0DDC0809108018111D9C0BB
:1041300083E190E00E942F036AE070E00E94E8288B
:10414000CB01789EB001799E700D1124072E000CD2
:10415000880B990B0E9473264B015C0160919703B9
:10416000709198038091990390919A0320E030E038
:1041700048EC52E40E94D2260E94B2287B0120E043
:1041800030E048EC52E4C501B4010E94D2260E94FE
:10419000B228E616F70609F0DFC080910801811108
:1041A000DBC041C06CE271E0CE0101960E94D81BD9
:1041B00061EA71E0CE0182960E94D81BBE016F5F5A
:1041C0007F4FCE0182960E94E118CE0182960E9416
:1041D0005F1BCE0101960E945F1B0E94F2166CE2EB
:1041E00071E0CE0101960E94D81B63EA71E0CE0116
:1041F00082960E94D81BBE016F5F7F4FCE018296D0
:104200000E94E118CE0182960E945F1BCE010196AA
:104210000E945F1B0E94F21604C00E94B2110E940D
:10422000F2100E945811109208010E94380AFECC28
:1042300084E00E94B30A892B09F0B1CC6EE973E0E7
:1042400085E090E00E94D10C80919E0390919F03A5
:104250000E9445166DE373E087E090E00E94E50C54
:104260006BE773E08BE190E00E94E50C6EE073E099
:104270008FE290E00E94E50C65E673E087E590E050
:104280000E94E50C61E573E083E490E00E94E50C98
:1042900065E273E08BE690E00E94E50C6DEB74E064
:1042A0008FE790E00E94540F6FE873E08AE890E097
:1042B0000E94D10C8CE890E00E9490278093240308
:1042C00077CC60913B0370913C03072E000C880B68
:1042D000990B0E94930B0E940B0D81E0E81AF108E4
:1042E00041CD8092930390929403A0929503B09253
:1042F00096031BA21AA21DA21CA21FA21EA28E011F
:104300000F5F1F4F22E044E0C501B4010E94F72275
:10431000BC01CE0182960E94311B65EA71E0C801A2
:104320000E94D81B6DEA71E0CE0188960E94D81BCE
:10433000AE014E5D5F4FB801CE0188960E946D18A8
:10434000CE0188960E945F1BC8010E945F1BCE01B0
:1043500082960E945F1BECCE809297039092980306
:10436000A0929903B0929A03609197037091980379
:104370008091990390919A031BA21AA21DA21CA2DC
:104380001FA21EA28E010F5F1F4F22E044E00E9479
:10439000F722BC01CE0182960E94311B6FEA71E0C8
:1043A000C8010E94D81B63EA71E0CE0188960E9482
:1043B000D81BAE014E5D5F4FB801CE0188960E94BA
:1043C0006D18CE0188960E945F1BC8010E945F1B7A
:1043D000CE0182960E945F1B26CFCF93DF93C1E967
:1043E000D4E02697CE010E945F1B84E0C934D80731
:1043F000C1F78BE994E00E945F1B8BEA94E00E9476
:104400005F1B81EB94E00E945F1B87EB94E00E94AE
:104410005F1B8DEB94E0DF91CF910C945F1B0F93AA
:104420001F93CF93DF93CDB7DEB72E970FB6F894D7
:10443000DEBF0FBECDBFEBEAF3E01382128288EE3F
:1044400093E0A0E0B0E084839583A683B78387E1FF
:1044500091E09183808385EC90E09587848784EC5C
:1044600090E09787868780EC90E0918B808B81EC41
:1044700090E0938B828B82EC90E0958B848B86EC22
:1044800090E0978B868B118E128E138E148E6BE8B4
:1044900071E08DEB94E00E94D81B64E972E087EB39
:1044A00094E00E94D81B65E271E081EB94E00E94E9
:1044B000D81B6BE871E08BEA94E00E94D81B83E97B
:1044C00094E00E94F70E83EA94E00E946D0C01E9EB
:1044D00014E08CE090E0F80191838083118A108AC7
:1044E000CE0101960E946D0C88E0FE013196A3EA90
:1044F000B4E001900D928A95E1F7CE0101960E94F9
:10450000F70E89819A81F801938382838C81858358
:104510008D819E81978386838F81988591878087FF
:10452000BE01675F7F4F8BE994E00E94661ACE015F
:1045300009960E945F1BF801808191819383828399
:1045400067EA72E089E494E00E94D81B6DE972E0AA
:104550008FE494E00E94D81B6AE972E085E594E05C
:104560000E94D81B62EA72E08BE594E00E94D81B9F
:104570006EEB72E081E694E00E94D81B6DEA72E077
:1045800087E694E00E94D81B6AEA72E08DE694E028
:104590000E94D81B69EB72E083E794E00E94D81B6D
:1045A00066EE71E089E794E00E94D81B68EC72E047
:1045B0008FE794E00E94D81B6EEE71E085E894E0EE
:1045C0000E94D81B6FEC72E08BE894E00E94D81B2D
:1045D00088E494E00E94BC0E2E960FB6F894DEBFDD
:1045E0000FBECDBFDF91CF911F910F910895EF9234
:1045F0000F931F93CF93DF93E80147FD02C034E090
:1046000001C034E1042E000C550B57FF03C0519537
:1046100041955109E32E022F242FAE010E942A2436
:10462000CE01DF91CF911F910F91EF9008958F925E
:104630009F92AF92BF92CF92DF92EF92FF92CF9371
:10464000DF93EC01688179818A819B816115710515
:104650008105910521F464E279ED8BE597E02DE188
:1046600033EF41E050E00E94A62749015A019B0127
:10467000AC01A7EAB1E40E94C5276B017C01ACEE56
:10468000B4EFA50194010E94D327DC01CB018C0D6E
:104690009D1DAE1DBF1DB7FF03C00197A109B04806
:1046A00088839983AA83BB83BC01CD019F77DF9167
:1046B000CF91FF90EF90DF90CF90BF90AF909F9001
:1046C0008F9008958F929F92AF92BF92CF92DF9278
:1046D000EF92FF926091090170910A0180910B01A4
:1046E00090910C01611571058105910521F464E239
:1046F00079ED8BE597E02DE133EF41E050E00E944A
:10470000A62749015A019B01AC01A7EAB1E40E9426
:10471000C5276B017C01ACEEB4EFA50194010E94AA
:10472000D327DC01CB018C0D9D1DAE1DBF1DB7FF36
:1047300003C00197A109B0488093090190930A0131
:10474000A0930B01B0930C01BC01CD019F77FF90AA
:10475000EF90DF90CF90BF90AF909F908F90089593
:104760006093090170930A0180930B0190930C01EF
:1047700008951F93FC0199278827BC01E8941191A3
:104780001032E9F3193010F01E30C8F31B3251F02B
:104790001D3249F4689406C00E94FB23610F711D0D
:1047A000811D911D119110531A30B0F33EF4909574
:1047B0008095709561957F4F8F4F9F4F1F91089502
:1047C000FB01DC0105900D920020E1F70895FC014A
:1047D00005900020E9F7809590958E0F9F1F089512
:1047E000BB274A3031F4992322F4BDE2909581959C
:1047F0009F4F0C941124592F482F372F262F660FC7
:10480000771F881F991F660F771F881F991F620FD8
:10481000731F841F951F660F771F881F991F0895A8
:10482000BB27FB015527AA27880F991FAA1FA4178A
:1048300010F0A41B83955051B9F7A05DAA3308F07E
:10484000A95DA193009779F7B111B1931192CB01B2
:104850000C945C26A9E0B0E0E0E3F4E20C94DE27DF
:104860006A01122FB02E2BE3201720F0FF24F394BF
:10487000F00E02C02CE3F22E0F2D27E0AE014F5FA9
:104880005F4F0E948425BC014981842F897081304B
:1048900031F0E1FC06C0E0FE06C090E205C09DE2FA
:1048A00003C09BE201C090E05E2D507143FF3CC00D
:1048B000911102C083E001C084E0811718F4212F18
:1048C000281B01C020E051110BC0F601822F30E2FD
:1048D000882319F031938150FBCFC20ED11C20E008
:1048E000992329F0D6019C93F60131966F01C601F8
:1048F0000396E2FE0AC03EE4D6013C9341E41196E1
:104900004C93119712963C9306C03EE6F601308315
:1049100041E641833283FC01322F40E2332309F424
:1049200042C041933150FACF42FF44C0911102C0BE
:1049300083E001C084E0811718F4212F281B01C0F7
:1049400020E051110BC0F601822F30E2882319F0CC
:1049500031938150FBCFC20ED11C20E0992329F066
:10496000D6019C93F60131966F01C6010396E2FED3
:104970000BC039E4D6013C933EE411963C93119769
:1049800036E412963C9307C039E6F60130833EE6E2
:10499000318336E63283FC01322F40E2332319F0B3
:1049A00041933150FBCFFC01E20FF11D10828EEFDD
:1049B0009FEFA6C021E030E0911102C020E030E07E
:1049C000161617061CF4FB01319602C0E1E0F0E078
:1049D0002E0F3F1FBB2021F0EB2DF0E0319602C0DF
:1049E000E0E0F0E02E0F3F1FE12FF0E02E173F0731
:1049F0001CF4121B212F01C020E08E2D887159F468
:104A0000F601822F30E2882319F031938150FBCFD9
:104A1000C20ED11C20E0992329F0D6019C93F60107
:104A200031966F0151110BC0F601822F90E388235C
:104A300019F091938150FBCFC20ED11C20E00F2DB5
:104A4000060F9A81342F307144FF03C0913309F46B
:104A50000150101624F4093018F008E001C001E0FC
:104A6000AB0177FF02C040E050E0FB01E41BF50B17
:104A7000A1E0B0E0AC0FBD1FEA0FFB1F8EE2A82E35
:104A80004B01801A91080B2D10E011950195110929
:104A90004F3FBFEF5B0721F4D601AC9211966D0139
:104AA000641775072CF08416950614F4818101C0F3
:104AB00080E3415051093196D60111967D0140178E
:104AC000510724F0D6018C936701E2CF6417750774
:104AD00039F4963320F4953319F4311101C081E390
:104AE000F6018083F701822F90E2882319F09193D9
:104AF0008150FBCFF701E20FF11D108280E090E0C2
:104B00002996ECE00C94FA27283008F027E03327A8
:104B1000DA01990F311D87FD9160009661057105DD
:104B200039F432602E5F3D9330E32A95E1F7089522
:104B30009F3F30F080387105610509F03C5F3C5FB4
:104B40003D93913008F08068911DDF93CF931F93C0
:104B50000F93FF92EF92192F987F9695E92F9695D4
:104B60009695E90FFF27EE5DFE4F99273327EE2438
:104B7000FF24A701E70105900894079428F4360F55
:104B8000E71EF81E491F511D660F771F881F991FCA
:104B90000694A1F70590079428F4E70EF81E491F24
:104BA000561FC11D770F881F991F661F0694A1F716
:104BB0000590079428F4F80E491F561FC71FD11DF2
:104BC000880F991F661F771F0694A1F70590079419
:104BD00020F4490F561FC71FD81F990F661F771F54
:104BE000881F0694A9F784911095177041F0D69507
:104BF000C79557954795F794E7941A95C1F7E8EC50
:104C0000F0E0689415901591359165919591059016
:104C10007FE27395E118F10A430B560BC90BD009DB
:104C2000C0F7E10CF11E431F561FC91FD01D7EF4B3
:104C3000703311F48A95E6CFE894015030F0080FF4
:104C40000AF40027021708F4202F2395022F7A3345
:104C500028F079E37D932A95E9F710C07D932A9592
:104C600089F6069497956795379517951794E118E7
:104C7000F10A430B560BC90BD00998F023957E918E
:104C800073957A3308F070E37C932013B8F77E9124
:104C900070617D9330F0839571E37D9370E32A9585
:104CA000E1F71124EF90FF900F911F91CF91DF91C9
:104CB000992787FD90950895DC01FC01672F71917C
:104CC0007723E1F7329704C07C916D9370836291F2
:104CD000AE17BF07C8F308950E94AE2608F481E01E
:104CE0000895E89409C097FB3EF4909580957095DF
:104CF00061957F4F8F4F9F4F9923A9F0F92F96E928
:104D0000BB279395F695879577956795B795F1119C
:104D1000F8CFFAF4BB0F11F460FF1BC06F5F7F4F39
:104D20008F4F9F4F16C0882311F096E911C077234B
:104D300021F09EE8872F762F05C0662371F096E854
:104D4000862F70E060E02AF09A95660F771F881F23
:104D5000DAF7880F9695879597F90895990F0008C7
:104D6000550FAA0BE0E8FEEF16161706E807F9073D
:104D7000C0F012161306E407F50798F0621B730BD8
:104D8000840B950B39F40A2661F0232B242B252B59
:104D900021F408950A2609F4A140A6958FEF811DFC
:104DA000811D08950E94E5260C9456270E944827ED
:104DB00038F00E944F2720F0952311F00C943F27E4
:104DC0000C94452711240C948A270E94672770F3BE
:104DD000959FC1F3950F50E0551F629FF001729FA0
:104DE000BB27F00DB11D639FAA27F00DB11DAA1FAF
:104DF000649F6627B00DA11D661F829F2227B00DFC
:104E0000A11D621F739FB00DA11D621F839FA00D86
:104E1000611D221F749F3327A00D611D231F849FD6
:104E2000600D211D822F762F6A2F11249F5750402D
:104E30009AF0F1F088234AF0EE0FFF1FBB1F661FA8
:104E4000771F881F91505040A9F79E3F510580F071
:104E50000C943F270C948A275F3FE4F3983ED4F3E9
:104E6000869577956795B795F795E7959F5FC1F715
:104E7000FE2B880F911D9695879597F9089597F9C0
:104E80009F6780E870E060E008959FEF80EC0895F0
:104E900000240A9416161706180609060895002419
:104EA0000A9412161306140605060895092E039493
:104EB000000C11F4882352F0BB0F40F4BF2B11F407
:104EC00060FF04C06F5F7F4F8F4F9F4F089557FD66
:104ED0009058440F551F59F05F3F71F04795880F68
:104EE00097FB991F61F09F3F79F0879508951216FF
:104EF00013061406551FF2CF4695F1DF08C01616AB
:104F000017061806991FF1CF86957105610508945B
:104F10000895E894BB2766277727CB0197F9089572
:104F2000F999FECF92BD81BDF89A992780B5089571
:104F3000262FF999FECF1FBA92BD81BD20BD0FB6B5
:104F4000F894FA9AF99A0FBE01960895052E97FBE8
:104F50001EF400940E94BD2757FD07D00E940F2821
:104F600007FC03D04EF40C94BD2750954095309526
:104F700021953F4F4F4F5F4F0895909580957095C5
:104F800061957F4F8F4F9F4F08950E943128A59FB5
:104F9000900DB49F900DA49F800D911D1124089534
:104FA000B7FF0C94C5270E94C527821B930B089559
:104FB0002F923F924F925F926F927F928F929F9229
:104FC000AF92BF92CF92DF92EF92FF920F931F9317
:104FD000CF93DF93CDB7DEB7CA1BDB0B0FB6F894C8
:104FE000DEBF0FBECDBF09942A88398848885F8408
:104FF0006E847D848C849B84AA84B984C884DF8079
:10500000EE80FD800C811B81AA81B981CE0FD11D5C
:105010000FB6F894DEBF0FBECDBFED010895A1E23B
:105020001A2EAA1BBB1BFD010DC0AA1FBB1FEE1F22
:10503000FF1FA217B307E407F50720F0A21BB30B6D
:10504000E40BF50B661F771F881F991F1A9469F7E9
:1050500060957095809590959B01AC01BD01CF0145
:105060000895A29FB001B39FC001A39F700D811D41
:105070001124911DB29F700D811D1124911D089561
:105080000E9454280C9456270E944F2758F00E94E3
:10509000482740F029F45F3F29F00C943F27511135
:1050A0000C948A270C9445270E94672768F399235C
:1050B000B1F3552391F3951B550BBB27AA27621714
:1050C0007307840738F09F5F5F4F220F331F441F21
:1050D000AA1FA9F335D00E2E3AF0E0E832D0915055
:1050E0005040E695001CCAF72BD0FE2F29D0660F42
:1050F000771F881FBB1F261737074807AB07B0E885
:1051000009F0BB0B802DBF01FF2793585F4F3AF08A
:105110009E3F510578F00C943F270C948A275F3FFF
:10512000E4F3983ED4F3869577956795B795F79510
:105130009F5FC9F7880F911D9695879597F90895F8
:10514000E1E0660F771F881FBB1F62177307840794
:10515000BA0720F0621B730B840BBA0BEE1F88F7A3
:10516000E09508950E94B9286894B1110C948A279B
:1051700008950E946F2788F09F5798F0B92F9927BC
:10518000B751B0F0E1F0660F771F881F991F1AF032
:10519000BA95C9F714C0B13091F00E948927B1E0E7
:1051A00008950C948927672F782F8827B85F39F0E6
:1051B000B93FCCF3869577956795B395D9F73EF4CB
:1051C00090958095709561957F4F8F4F9F4F089573
:1051D00097FB072E16F4009407D077FD09D00E94A4
:1051E000022907FC05D03EF4909581959F4F0895C4
:1051F000709561957F4F0895EE0FFF1F0590F49114
:10520000E02D0994AA1BBB1B51E107C0AA1FBB1FBD
:10521000A617B70710F0A61BB70B881F991F5A9542
:10522000A9F780959095BC01CD0108950F931F9328
:10523000CF93DF938230910510F482E090E0E0910B
:10524000C504F091C60420E030E0A0E0B0E0309763
:1052500019F1408151810281138148175907C8F023
:105260008417950769F4109731F012960C931297F2
:1052700013961C9327C00093C5041093C60422C044
:105280002115310519F04217530718F49A01BD0191
:10529000EF01DF01F801DBCF21153105F9F0281B03
:1052A000390B2430310580F48A819B8161157105A9
:1052B00021F0FB019383828304C09093C604809302
:1052C000C504FE01329644C0FE01E20FF31F819334
:1052D000919322503109398328833AC02091C30425
:1052E0003091C404232B41F420910F01309110011F
:1052F0003093C4042093C30420910D0130910E011A
:105300002115310541F42DB73EB74091110150915F
:105310001201241B350BE091C304F091C404E21781
:10532000F307A0F42E1B3F0B2817390778F0AC01C8
:105330004E5F5F4F2417350748F04E0F5F1F5093A5
:10534000C4044093C3048193919302C0E0E0F0E071
:10535000CF01DF91CF911F910F910895CF93DF93EC
:10536000009709F481C0FC01329713821282A09148
:10537000C504B091C604109781F420813181820F59
:10538000931F2091C3043091C4042817390751F5A5
:10539000F093C404E093C30467C0ED0120E030E063
:1053A000CE17DF0740F44A815B819E01411551050C
:1053B000F1F0EA01F5CFD383C28340815181840F9C
:1053C000951FC817D90759F488819981840F951FB3
:1053D0000296918380838A819B81938382832115A6
:1053E000310529F4F093C604E093C5043DC0E901FA
:1053F000FB83EA8349915991C40FD51FEC17FD0730
:1054000061F480819181840F951F0296E90199834F
:105410008883828193819B838A83E0E0F0E0129607
:105420008D919C911397009719F0FD01DC01F7CF46
:105430008D919C9111979D012E5F3F4F820F931F7D
:105440002091C3043091C4042817390769F43097B8
:1054500029F41092C6041092C50402C0138212826D
:10546000B093C404A093C304DF91CF910895A0E04A
:10547000B0E0EDE3FAE20C94DC27EC01009721F4B4
:10548000CB010E941629B4C0FC01E60FF71F9C0156
:1054900022503109E217F30708F4A8C0D9010D9191
:1054A0001C91119706171707B0F00530110508F485
:1054B0009BC0C80104978617970708F495C002504F
:1054C0001109061B170B019311936D937C93CF0168
:1054D0000E94AE2989C05B01A01AB10A4C01800E5E
:1054E000911EA091C504B091C604612C712CE12CD1
:1054F000F12C109709F446C08D919C911197A81535
:10550000B905B1F56C0142E0C40ED11CCA14DB042C
:1055100078F14C018A189B08640142E0C40ED11C4A
:105520001296BC9012971396AC91B5E0CB16D104AD
:1055300040F0B282A38391828082D9016D937C93E3
:1055400009C00E5F1F4F800F911FF9019183808367
:10555000EB2DFA2FE114F10431F0D7011396FC93EF
:10556000EE93129741C0F093C604E093C5043CC08B
:105570006816790608F43C017D0112960D90BC91E5
:10558000A02DB7CF8091C3049091C40488169906CA
:10559000E1F466167706C8F480910D0190910E0132
:1055A000009741F48DB79EB74091110150911201BF
:1055B000841B950BE817F907C8F4F093C404E09333
:1055C000C304F901718360830FC0CB010E941629C7
:1055D0007C01009759F0A801BE010E94022BCE0168
:1055E0000E94AE29C70104C0CE0102C080E090E055
:1055F000CDB7DEB7EEE00C94F82781E090E0F894A8
:105600000C942A2BFB01DC0102C001900D92415049
:105610005040D8F70895FB01DC018D91019080196D
:105620000110D9F3990B0895FB01DC0101900D9253
:105630000020E1F70895FB01DC014150504048F0A3
:1056400001900D920020C9F701C01D9241505040B9
:10565000E0F7089512E0C6E1D2E004C0FE010E9426
:0E566000FC282196C731D107C9F7F894FFCF77
:10566E009F860500900A900A01010000000000C705
:10567E0004800000000000710926192A09BE095B8A
:10568E000939094D09756E73657400323100313078
:10569E0000496E69742044656C6179004C6F6E67C9
:1056AE006573742050756C73650073486F72746502
:1056BE0073742050756C7365004465636179204680
:1056CE006163746F720052616E646F6D2046616328
:1056DE00746F7200526570656174204E756D6265EF
:1056EE007200486F77647921000D0A00526570656B
:1056FE006174204D6F64653A200044617461002A24
:10570E00003700390044656361793A200038005251
:10571E00616E646F6D6E6573733A20001B5B4A0099
:10572E001B5B324A001B53502046001B5B3F323539
:10573E006C001B5B3F31326C0042004100526570C1
:10574E006561743A200053747265746368004D612C
:10575E00797461670050756C7365204C656E677463
:10576E00683A20005E0053657175656E63653A2078
:10577E0000492E20496E697469616C2044656C6124
:10578E00793A2000094C2E204C6F6E676573742099
:10579E0050756C73653A200009482E2073486F725D
:1057AE00746573742050756C73653A2000462E2014
:1057BE00446563617920466163746F723A20000913
:1057CE00522E2052616E646F6D20466163746F724B
:1057DE003A2000094E2E20526570656174204E7578
:1057EE006D6265723A2000323000350046786E3AAE
:1057FE002000360030303030300055702F446F7737
:10580E006E00446F776E2F55700055702F446F7772
:10581E006E2052657065617400446F776E2F5570FF
:10582E002052657065617400546F67676C65005532
:10583E00736572001B5B356D001B5B306D001B5B6F
:10584E00304B001B5B003B314800456E636F646557
:10585E00643A20002053746174653A200020436836
:0A586E00616E6E656C3A20003B008D
:00000001FF
